{
  "_format": "hh-sol-artifact-1",
  "contractName": "Voting",
  "sourceName": "contracts/Voting.sol",
  "abi": [
    {
      "inputs": [],
      "stateMutability": "nonpayable",
      "type": "constructor"
    },
    {
      "anonymous": false,
      "inputs": [
        {
          "indexed": true,
          "internalType": "uint256",
          "name": "candidateId",
          "type": "uint256"
        },
        {
          "indexed": true,
          "internalType": "address",
          "name": "voter",
          "type": "address"
        }
      ],
      "name": "Voted",
      "type": "event"
    },
    {
      "anonymous": false,
      "inputs": [
        {
          "indexed": true,
          "internalType": "address",
          "name": "voter",
          "type": "address"
        }
      ],
      "name": "Whitelisted",
      "type": "event"
    },
    {
      "inputs": [
        {
          "internalType": "address",
          "name": "_address",
          "type": "address"
        }
      ],
      "name": "addToWhitelist",
      "outputs": [],
      "stateMutability": "nonpayable",
      "type": "function"
    },
    {
      "inputs": [
        {
          "internalType": "uint256",
          "name": "",
          "type": "uint256"
        }
      ],
      "name": "candidates",
      "outputs": [
        {
          "internalType": "uint256",
          "name": "id",
          "type": "uint256"
        },
        {
          "internalType": "string",
          "name": "name",
          "type": "string"
        },
        {
          "internalType": "uint256",
          "name": "voteCount",
          "type": "uint256"
        }
      ],
      "stateMutability": "view",
      "type": "function"
    },
    {
      "inputs": [],
      "name": "candidatesCount",
      "outputs": [
        {
          "internalType": "uint256",
          "name": "",
          "type": "uint256"
        }
      ],
      "stateMutability": "view",
      "type": "function"
    },
    {
      "inputs": [],
      "name": "getAllCandidates",
      "outputs": [
        {
          "components": [
            {
              "internalType": "uint256",
              "name": "id",
              "type": "uint256"
            },
            {
              "internalType": "string",
              "name": "name",
              "type": "string"
            },
            {
              "internalType": "uint256",
              "name": "voteCount",
              "type": "uint256"
            }
          ],
          "internalType": "struct Voting.Candidate[]",
          "name": "",
          "type": "tuple[]"
        }
      ],
      "stateMutability": "view",
      "type": "function"
    },
    {
      "inputs": [
        {
          "internalType": "address",
          "name": "",
          "type": "address"
        }
      ],
      "name": "hasVoted",
      "outputs": [
        {
          "internalType": "bool",
          "name": "",
          "type": "bool"
        }
      ],
      "stateMutability": "view",
      "type": "function"
    },
    {
      "inputs": [
        {
          "internalType": "address",
          "name": "",
          "type": "address"
        }
      ],
      "name": "isWhitelisted",
      "outputs": [
        {
          "internalType": "bool",
          "name": "",
          "type": "bool"
        }
      ],
      "stateMutability": "view",
      "type": "function"
    },
    {
      "inputs": [],
      "name": "owner",
      "outputs": [
        {
          "internalType": "address",
          "name": "",
          "type": "address"
        }
      ],
      "stateMutability": "view",
      "type": "function"
    },
    {
      "inputs": [
        {
          "internalType": "uint256",
          "name": "_candidateId",
          "type": "uint256"
        }
      ],
      "name": "vote",
      "outputs": [],
      "stateMutability": "nonpayable",
      "type": "function"
    }
  ],
  "bytecode": "0x60806040523480156200001157600080fd5b50336000806101000a81548173ffffffffffffffffffffffffffffffffffffffff021916908373ffffffffffffffffffffffffffffffffffffffff160217905550620000986040518060400160405280600b81526020017f416e20746f616e207765620000000000000000000000000000000000000000008152506200012a60201b60201c565b620000de6040518060400160405280601081526020017f5068616e2074696368206d6120646f63000000000000000000000000000000008152506200012a60201b60201c565b620001246040518060400160405280600f81526020017f446963682076752064616d206d617900000000000000000000000000000000008152506200012a60201b60201c565b62000586565b6040518060600160405280600454815260200182815260200160008152506001600060045481526020019081526020016000206000820151816000015560208201518160010190816200017e919062000423565b506040820151816002015590505060046000815480929190620001a19062000539565b919050555050565b600081519050919050565b7f4e487b7100000000000000000000000000000000000000000000000000000000600052604160045260246000fd5b7f4e487b7100000000000000000000000000000000000000000000000000000000600052602260045260246000fd5b600060028204905060018216806200022b57607f821691505b602082108103620002415762000240620001e3565b5b50919050565b60008190508160005260206000209050919050565b60006020601f8301049050919050565b600082821b905092915050565b600060088302620002ab7fffffffffffffffffffffffffffffffffffffffffffffffffffffffffffffffff826200026c565b620002b786836200026c565b95508019841693508086168417925050509392505050565b6000819050919050565b6000819050919050565b600062000304620002fe620002f884620002cf565b620002d9565b620002cf565b9050919050565b6000819050919050565b6200032083620002e3565b620003386200032f826200030b565b84845462000279565b825550505050565b600090565b6200034f62000340565b6200035c81848462000315565b505050565b5b8181101562000384576200037860008262000345565b60018101905062000362565b5050565b601f821115620003d3576200039d8162000247565b620003a8846200025c565b81016020851015620003b8578190505b620003d0620003c7856200025c565b83018262000361565b50505b505050565b600082821c905092915050565b6000620003f860001984600802620003d8565b1980831691505092915050565b6000620004138383620003e5565b9150826002028217905092915050565b6200042e82620001a9565b67ffffffffffffffff8111156200044a5762000449620001b4565b5b62000456825462000212565b6200046382828562000388565b600060209050601f8311600181146200049b576000841562000486578287015190505b62000492858262000405565b86555062000502565b601f198416620004ab8662000247565b60005b82811015620004d557848901518255600182019150602085019450602081019050620004ae565b86831015620004f55784890151620004f1601f891682620003e5565b8355505b6001600288020188555050505b505050505050565b7f4e487b7100000000000000000000000000000000000000000000000000000000600052601160045260246000fd5b60006200054682620002cf565b91507fffffffffffffffffffffffffffffffffffffffffffffffffffffffffffffffff82036200057b576200057a6200050a565b5b600182019050919050565b610f9b80620005966000396000f3fe608060405234801561001057600080fd5b50600436106100885760003560e01c80633477ee2e1161005b5780633477ee2e146101155780633af32abf146101475780638da5cb5b14610177578063e43252d71461019557610088565b80630121b93f1461008d57806309eef43e146100a95780632d35a8a2146100d95780632e6997fe146100f7575b600080fd5b6100a760048036038101906100a29190610877565b6101b1565b005b6100c360048036038101906100be9190610902565b6103e6565b6040516100d0919061094a565b60405180910390f35b6100e1610406565b6040516100ee9190610974565b60405180910390f35b6100ff61040c565b60405161010c9190610b40565b60405180910390f35b61012f600480360381019061012a9190610877565b61056c565b60405161013e93929190610bac565b60405180910390f35b610161600480360381019061015c9190610902565b61061e565b60405161016e919061094a565b60405180910390f35b61017f61063e565b60405161018c9190610bf9565b60405180910390f35b6101af60048036038101906101aa9190610902565b610662565b005b600360003373ffffffffffffffffffffffffffffffffffffffff1673ffffffffffffffffffffffffffffffffffffffff16815260200190815260200160002060009054906101000a900460ff1661023d576040517f08c379a000000000000000000000000000000000000000000000000000000000815260040161023490610c60565b60405180910390fd5b600260003373ffffffffffffffffffffffffffffffffffffffff1673ffffffffffffffffffffffffffffffffffffffff16815260200190815260200160002060009054906101000a900460ff16156102ca576040517f08c379a00000000000000000000000000000000000000000000000000000000081526004016102c190610ccc565b60405180910390fd5b600081101580156102dc575060045481105b61031b576040517f08c379a000000000000000000000000000000000000000000000000000000000815260040161031290610d38565b60405180910390fd5b6001600260003373ffffffffffffffffffffffffffffffffffffffff1673ffffffffffffffffffffffffffffffffffffffff16815260200190815260200160002060006101000a81548160ff02191690831515021790555060016000828152602001908152602001600020600201600081548092919061039a90610d87565b91905055503373ffffffffffffffffffffffffffffffffffffffff16817f030b0f8dcd86a031eddb071f91882edeac8173663ba775713b677b42b51be44b60405160405180910390a350565b60026020528060005260406000206000915054906101000a900460ff1681565b60045481565b6060600060045467ffffffffffffffff81111561042c5761042b610dcf565b5b60405190808252806020026020018201604052801561046557816020015b61045261081b565b81526020019060019003908161044a5790505b50905060005b6004548110156105645760016000828152602001908152602001600020604051806060016040529081600082015481526020016001820180546104ad90610e2d565b80601f01602080910402602001604051908101604052809291908181526020018280546104d990610e2d565b80156105265780601f106104fb57610100808354040283529160200191610526565b820191906000526020600020905b81548152906001019060200180831161050957829003601f168201915b5050505050815260200160028201548152505082828151811061054c5761054b610e5e565b5b6020026020010181905250808060010191505061046b565b508091505090565b600160205280600052604060002060009150905080600001549080600101805461059590610e2d565b80601f01602080910402602001604051908101604052809291908181526020018280546105c190610e2d565b801561060e5780601f106105e35761010080835404028352916020019161060e565b820191906000526020600020905b8154815290600101906020018083116105f157829003601f168201915b5050505050908060020154905083565b60036020528060005260406000206000915054906101000a900460ff1681565b60008054906101000a900473ffffffffffffffffffffffffffffffffffffffff1681565b60008054906101000a900473ffffffffffffffffffffffffffffffffffffffff1673ffffffffffffffffffffffffffffffffffffffff163373ffffffffffffffffffffffffffffffffffffffff16146106f0576040517f08c379a00000000000000000000000000000000000000000000000000000000081526004016106e790610ed9565b60405180910390fd5b600360008273ffffffffffffffffffffffffffffffffffffffff1673ffffffffffffffffffffffffffffffffffffffff16815260200190815260200160002060009054906101000a900460ff161561077d576040517f08c379a000000000000000000000000000000000000000000000000000000000815260040161077490610f45565b60405180910390fd5b6001600360008373ffffffffffffffffffffffffffffffffffffffff1673ffffffffffffffffffffffffffffffffffffffff16815260200190815260200160002060006101000a81548160ff0219169083151502179055508073ffffffffffffffffffffffffffffffffffffffff167faab7954e9d246b167ef88aeddad35209ca2489d95a8aeb59e288d9b19fae5a5460405160405180910390a250565b60405180606001604052806000815260200160608152602001600081525090565b600080fd5b6000819050919050565b61085481610841565b811461085f57600080fd5b50565b6000813590506108718161084b565b92915050565b60006020828403121561088d5761088c61083c565b5b600061089b84828501610862565b91505092915050565b600073ffffffffffffffffffffffffffffffffffffffff82169050919050565b60006108cf826108a4565b9050919050565b6108df816108c4565b81146108ea57600080fd5b50565b6000813590506108fc816108d6565b92915050565b6000602082840312156109185761091761083c565b5b6000610926848285016108ed565b91505092915050565b60008115159050919050565b6109448161092f565b82525050565b600060208201905061095f600083018461093b565b92915050565b61096e81610841565b82525050565b60006020820190506109896000830184610965565b92915050565b600081519050919050565b600082825260208201905092915050565b6000819050602082019050919050565b6109c481610841565b82525050565b600081519050919050565b600082825260208201905092915050565b60005b83811015610a045780820151818401526020810190506109e9565b60008484015250505050565b6000601f19601f8301169050919050565b6000610a2c826109ca565b610a3681856109d5565b9350610a468185602086016109e6565b610a4f81610a10565b840191505092915050565b6000606083016000830151610a7260008601826109bb565b5060208301518482036020860152610a8a8282610a21565b9150506040830151610a9f60408601826109bb565b508091505092915050565b6000610ab68383610a5a565b905092915050565b6000602082019050919050565b6000610ad68261098f565b610ae0818561099a565b935083602082028501610af2856109ab565b8060005b85811015610b2e5784840389528151610b0f8582610aaa565b9450610b1a83610abe565b925060208a01995050600181019050610af6565b50829750879550505050505092915050565b60006020820190508181036000830152610b5a8184610acb565b905092915050565b600082825260208201905092915050565b6000610b7e826109ca565b610b888185610b62565b9350610b988185602086016109e6565b610ba181610a10565b840191505092915050565b6000606082019050610bc16000830186610965565b8181036020830152610bd38185610b73565b9050610be26040830184610965565b949350505050565b610bf3816108c4565b82525050565b6000602082019050610c0e6000830184610bea565b92915050565b7f42616e20636875612064756f632063617020717579656e20626f207068696575600082015250565b6000610c4a602083610b62565b9150610c5582610c14565b602082019050919050565b60006020820190508181036000830152610c7981610c3d565b9050919050565b7f42616e20646120626f20706869657520726f6900000000000000000000000000600082015250565b6000610cb6601383610b62565b9150610cc182610c80565b602082019050919050565b60006020820190508181036000830152610ce581610ca9565b9050919050565b7f4944206d6f6e20686f63206b686f6e6720686f70206c65000000000000000000600082015250565b6000610d22601783610b62565b9150610d2d82610cec565b602082019050919050565b60006020820190508181036000830152610d5181610d15565b9050919050565b7f4e487b7100000000000000000000000000000000000000000000000000000000600052601160045260246000fd5b6000610d9282610841565b91507fffffffffffffffffffffffffffffffffffffffffffffffffffffffffffffffff8203610dc457610dc3610d58565b5b600182019050919050565b7f4e487b7100000000000000000000000000000000000000000000000000000000600052604160045260246000fd5b7f4e487b7100000000000000000000000000000000000000000000000000000000600052602260045260246000fd5b60006002820490506001821680610e4557607f821691505b602082108103610e5857610e57610dfe565b5b50919050565b7f4e487b7100000000000000000000000000000000000000000000000000000000600052603260045260246000fd5b7f436869206f776e6572206d6f6920636f207468652074687563206869656e0000600082015250565b6000610ec3601e83610b62565b9150610ece82610e8d565b602082019050919050565b60006020820190508181036000830152610ef281610eb6565b9050919050565b7f44696120636869206461206e616d2074726f6e672077686974656c6973740000600082015250565b6000610f2f601e83610b62565b9150610f3a82610ef9565b602082019050919050565b60006020820190508181036000830152610f5e81610f22565b905091905056fea264697066735822122079079d33f6618d999c3d45119e90f8d6ec3b8ca7cfc927e142066d4a51a4657f64736f6c63430008180033",
  "linkReferences": {},
  "deployedLinkReferences": {}
}